:030000000208747F
:0C087400787FE4F6D8FD75810D020800C5
:10080000750800750900750A00750B002090F175D8
:100810000800750900D3E5099405E5086480948013
:0208200050DEA8
:10082200750C00750D00AF09A8077401088002C39A
:1008320033D8FCFF42A0750C00750D00C3E50D9482
:1008420010E50C648094A7500A050DE50D700205B1
:100852000C80E9AF09A8077401088002C333D8FCF1
:05086200FFF4FF52A0AD
:0A0867000509E5097002050880A4E8
:03087100808D2255
:00000001FF
