:03000000020C559A
:0C0C5500787FE4F6D8FD75813D020C9C10
:090E4300476F6C697973003A00F5
:100DB5008B318A3289337F80120E1FAB31AA32A95B
:100DC50033120D8E7FC0120E1F7BFF7A0E794312F0
:030DD5000D8E225E
:0A0B61008E088F098B0A8A0B890C9D
:100B6B00750D00750E00AE08AF097C007D0A1208EA
:100B7B00688C118D12AF12EF2430FFAB0AAA0BA9B0
:100B8B000C050EE50EAC0D7002050D14FDF5828CF7
:100B9B0083EF120846AE08AF097C007D0A12086885
:100BAB008E088F09D3E5099400E508648094805082
:100BBB00B5AB0AAA0BA90CAE0DAF0E8F828E83E4D8
:100BCB00120846750F00751000AE0DAF0E7C007D40
:100BDB0002120868C3E5109FEE6480F8E50F64808D
:100BEB00985066AB0AAA0BA90CAE0FAF108F828E72
:100BFB0083120819FFF513C3E50E9510FFE50D954C
:100C0B000FFEEF24FFFFEE34FFFE8F82F5831208F9
:100C1B0019FFAC0FAD108D828C83120846C3E50E05
:100C2B009510FFE50D950FFEEF24FFFFEE34FFFE51
:100C3B00AB0AAA0BA90C8F82F583E51312084605A4
:090C4B0010E5107002050F808015
:010C5400227D
:0C09EE008E148F158C168D178A188B192B
:1009FA00C3E515940AE51464809480500D751D3082
:100A0A00EF2430F51E751F008025AE14AF157C004B
:100A1A007D0A120868EF2430F51DAE14AF157C006C
:100A2A007D0A120868AF05EF2430F51E751F007B9A
:100A3A00007A00791DC003C002C001AB1AAA1BA923
:100A4A001CA801AC02AD03D001D002D00312096A7E
:100A5A00AB1AAA1BA91CC003C002C0017BFF7A0EF5
:100A6A00794A8B238A248925D001D002D003120C1B
:100A7A00E1C3E517940AE51664809480500F751D4A
:100A8A0030AF17EF2430F51E751F008025AE16AF64
:100A9A00177C007D0A120868EF2430F51DAE16AFE8
:100AAA00177C007D0A120868AF05EF2430F51E7521
:100ABA001F00AB1AAA1BA91CC003C002C0017B00FD
:100ACA007A00791D8B238A248925D001D002D0038C
:100ADA00120CE1AB1AAA1BA91CC003C002C0017BFD
:100AEA00FF7A0E794A8B238A248925D001D002D035
:100AFA0003120CE1C3E519940AE518648094805046
:100B0A000F751D30AF19EF2430F51E751F008025B3
:100B1A00AE18AF197C007D0A120868EF2430F51D63
:100B2A00AE18AF197C007D0A120868AF05EF2430B1
:100B3A00F51E751F00AB1AAA1BA91CC003C002C070
:100B4A00017B007A00791D8B238A248925D001D064
:060B5A0002D003120CE1C1
:010B60002272
:100D3900752900752A00120E01120E377B007A0000
:100D4900792B120DB5120DD8E53A6428453970F59D
:100D5900FB7A00792BAF2AAE29120B617B007A004E
:100D6900792B120DB5E52A643C45297004F529F55E
:100D79002A753900753A00052AE52A7002052963A2
:040D890090FF80C196
:010D8D002243
:100DEE008E378F38E5381538AE3770021537FF4E0F
:030DFE0070F2226E
:0E0E110053B07F7FE87E03120DEE43B08022C7
:060E4C008F3B853BA02254
:0C0E1F008F3C120E4C53B0DF120E11225B
:0C0E2B008F3D120E4C43B020120E11221D
:100E01007F38120E1F7F0E120E1F7F06120E1F2239
:100D8E008B348A358936AB34AA35A936120800FF62
:100D9E006014120800FF120E2B74012536F536E48E
:070DAE003535F53580E02228
:040E52000239000061
:0C0E3700758901758CA5758AFED28C228D
:100DD800308D12C28D758CA5758AFE053AE53A707C
:060DE80002053980EB2238
:100C6100020D39E493A3F8E493A34003F68001F263
:100C710008DFF48029E493A3F85407240CC8C33394
:100C8100C4540F4420C8834004F456800146F6DF63
:100C9100E4800B0102040810204080900E52E47E93
:100CA100019360BCA3FF543F30E509541FFEE49358
:100CB100A360010ECF54C025E060A840B8E493A31F
:100CC100FAE493A3F8E493A3C8C582C8CAC583CA4A
:100CD100F0A3C8C582C8CAC583CADFE9DEE780BE02
:010E5600009B
:10080000BB010689828A83E0225002E722BBFE02F6
:09081000E32289828A83E4932229
:10081900BB010CE58229F582E5833AF583E0225094
:1008290006E92582F8E622BBFE06E92582F8E222DE
:0D083900E58229F582E5833AF583E49322F8
:10084600F8BB010DE58229F582E5833AF583E8F0E8
:10085600225006E92582C8F622BBFE05E92582C894
:02086600F2227C
:10086800C2D5EC30E709B2D5E4C39DFDE49CFCEEAB
:1008780030E715B2D5E4C39FFFE49EFE120999C381
:10088800E49DFDE49CFC800312099930D507C3E47C
:060898009FFFE49EFE221A
:100CE1008B208A2189228B268A278928AB200522FD
:100CF100E522AA217002052114F912080070ED7491
:100D0100FF2522F52274FF3521F521AB230525E5C9
:100D110025AA247002052414F9120800FFAB20054E
:100D210022E522AA217002052114F9EF1209877028
:080D3100DAAB26AA27A928224B
:10089E00E709F60870FA8046E709F20870FA803E1A
:1008AE0088828C83E709F0A370FA807EE309F6084C
:1008BE0070FA8076E309F20870FA806E88828C8373
:1008CE00E309F0A370FA806289828A83E0A3F608B6
:1008DE0070FA805689828A83E0A3F20870FA804A01
:1008EE0080D280FA80C680D4806580F280318010FC
:1008FE0080A680EA809A80A880DA80E280CA803161
:10090E0089828A83ECFAE493A3C8C582C8CCC583D6
:10091E00CCF0A3C8C582C8CCC583CC70E9800D8944
:10092E00828A83E493A3F60870F9ECFAA9F0EDFB42
:10093E002289828A83ECFAE0A3C8C582C8CCC5831B
:10094E00CCF0A3C8C582C8CCC583CC70EA80DD8943
:10095E00828A83E493A3F20870F980CE88F0ED24A6
:10096E0002B4040050C4F582EB2402B4040050BA61
:09097E0023234582239008EE7347
:10098700BB010689828A83F0225002F722BBFE014F
:02099700F32249
:10099900BC000BBE0029EF8DF084FFADF022E4CC42
:1009A900F875F008EF2FFFEE33FEEC33FCEE9DEC0B
:1009B900984005FCEE9DFE0FD5F0E9E4CEFD22ED51
:1009C900F8F5F0EE8420D21CFEADF075F008EF2F9B
:1009D900FFED33FD4007985006D5F0F222C398FD8C
:0509E9000FD5F0EA2229
:00000001FF
