:030000000208F7FC
:0C08F700787FE4F6D8FD75810C02080043
:100800007F407E421208A3E5906401FF600E43A082
:100810000153A0FD43A00453A0F780EBE5906011C5
:10082000E59060E37BFF7A0879C312087180F1805C
:10083000D6E5906011E59060CE7BFF7A0879D01202
:10084000087180F180C1E5906011E59060B97BFF8F
:100850007A0879DD12087180F180ACE59060A8E536
:100860009060A47BFF7A0879EA12087180F1809782
:010870002265
:0D08B60043A00153A0FD43A00453A0F7226E
:0D08C30043A00253A0FE43A00853A0FB2257
:0D08D00053A0FE53A0FD43A00453A0F72247
:0D08DD0043A00153A0FD53A0FB53A0F72240
:0D08EA0053A0FE53A0FD53A0FB53A0F72226
:100871008B088A09890AE5906027E5906401FF6089
:1008810020E5906402FF6019E5906403FF6012E5C2
:10089100906404FF600BAB08AA09A90A120903803E
:0208A100D5225E
:1008A3008E0B8F0CE50C150CAE0B7002150BFF4E67
:0308B30070F222BE
:060903008A838982E4737F
:00000001FF
