:03000000020800F3
:0C080000787FE4F6D8FD758117020847E8
:0E09B50056696E6974206B756D6172203A0090
:03002300020A0CC2
:090A0C00309805859917C2983253
:10088C001209F57BFF7A0979B512095553A0FE536D
:10089C00A0FD53A0FB75174CE51760FCAF17120AAF
:1008AC0001851712751700E51212090808D84208BD
:1008BC00E24608CE4C08DD6208E76608D36C0000FF
:1008CC0008A443A00180D153A0FE80CC43A0028099
:1008DC00C753A0FD80C243A00480BD53A0FB80B8C9
:0208EC0080B6D4
:0108EE0022E7
:100992008E0E8F0FE50F150FAE0E7002150EFF4E65
:0309A20070F222CE
:0E09C30053B07F7FE87E0312099243B080227A
:060A1D008F138513A022D7
:0C09D1008F14120A1D53B0DF1209C3225C
:0C09DD008F15120A1D43B0201209C3221E
:1009A5007F381209D17F0E1209D17F061209D12293
:10092E008B088A09890AAB08AA09A90A1208EFFFDF
:10093E0060141208EFFF1209DD7401250AF50AE4AE
:07094E003509F50980E022E4
:040A150002100000CB
:0C09E900758901758CA5758AFED28C22E0
:10097C00308D12C28D758CA5758AFE0511E511702E
:06098C0002051080EB22C1
:030A1900011700C2
:0C09F500758920758DFD759850D28E22FA
:0B0A01008F168516993099FDC29922CE
:100955008B0B8A0C890DAB0BAA0CA90D1208EFFFA6
:1009650060141208EFFF120A017401250DF50DE45C
:07097500350CF50C80E022B7
:10080C0002088CE493A3F8E493A34003F68001F26E
:10081C0008DFF48029E493A3F85407240CC8C333ED
:10082C00C4540F4420C8834004F456800146F6DFBC
:10083C00E4800B0102040810204080900A15E47E2D
:10084C00019360BCA3FF543F30E509541FFEE493B1
:10085C00A360010ECF54C025E060A840B8E493A378
:10086C00FAE493A3F8E493A3C8C582C8CAC583CAA3
:10087C00F0A3C8C582C8CAC583CADFE9DEE780BE5B
:010A1C0000D9
:1008EF00BB010689828A83E0225002E722BBFE0207
:0908FF00E32289828A83E493223A
:10090800D083D082F8E4937012740193700DA3A37E
:1009180093F8740193F5828883E473740293686092
:06092800EFA3A3A380DF92
:00000001FF
