:030000000208A44F
:0C08A400787FE4F6D8FD75810D02080095
:0308000012086E6D
:10080300750800750900750800750900D3E509949A
:0908130007E5086480948050E7B9
:10081C00750A00750B00AF09A8077401088002C3A4
:10082C0033D8FCFF42A0750A00750B00C3E50B948E
:10083C0010E50A648094A7500A050BE50B700205BD
:10084C000A80E9AF09A8077401088002C333D8FCF9
:05085C00FFF4FF52A0B3
:0A0861000509E5097002050880A4EE
:03086B0080962252
:10086E00750C00750D00750C00750D00D3E50D941B
:10087E0007E50C64809480501CAF0DA80774010826
:10088E008002C333D8FCFFF4FF52A0050DE50D70B6
:05089E0002050C80D7EB
:0108A3002232
:00000001FF
