:0F00000030810530824180F87409F5A01200812B
:10000F007408F5A0120081740CF5A012008174041D
:10001F00F5A01200817406F5A01200817402F5A0FC
:0E002F001200817403F5A01200817401F5A087
:0E003D001200817409F5A01200817401F5A073
:0E004B001200817403F5A01200817402F5A06A
:0E0059001200817406F5A01200817404F5A057
:0E006700120081740CF5A01200817408F5A03F
:100075001200817409F5A012008101007B087A66DF
:090085007966D9FEDAFADBF622F5
:00000001FF
