:03000000020800F3
:0C080000787FE4F6D8FD758115020847EA
:0A091C00080810020604050109088E
:1008F50075A00020900512088C80F82091F512084B
:04090500C480F02298
:10088C00751000751100751000751100D3E51194E9
:10089C0007E51064809480501EAF1174082FF8E6A1
:1008AC00FFF5A02090117F407E1F1209090511E56C
:0708BC00117002051080D548
:0108C3002212
:1008C400751200751300751200751307C3E51264E1
:1008D400809480401BAF1374082FF8E6FFF5A07FC7
:1008E400407E1F120909E51315137002151280DCEE
:0108F40022E1
:100909008E148F15E5151515AE1470021514FF4ECA
:0309190070F22257
:10080C000208F5E493A3F8E493A34003F68001F205
:10081C0008DFF48029E493A3F85407240CC8C333ED
:10082C00C4540F4420C8834004F456800146F6DFBC
:10083C00E4800B010204081020408090091CE47E27
:10084C00019360BCA3FF543F30E509541FFEE493B1
:10085C00A360010ECF54C025E060A840B8E493A378
:10086C00FAE493A3F8E493A3C8C582C8CAC583CAA3
:10087C00F0A3C8C582C8CAC583CADFE9DEE780BE5B
:0109260000D0
:00000001FF
