:03000000020800F3
:0C080000787FE4F6D8FD75810D020847F2
:0E095B0056696E6974206B756D6172203A00EA
:03098600010C0061
:030023000209804F
:0609800085990CC29832BB
:10088C0012096943A88043A8107BFF7A09795B128F
:10089C00093453A0FE53A0FD53A0FB750C4CE50C82
:1008AC0060FCAF0C120975850C0B750C00E50B1276
:1008BC00090E08DE4208E84608D44C08E36208ED4D
:1008CC006608D96C000008AA43A00180D153A0FE91
:1008DC0080CC43A00280C753A0FD80C243A00480FB
:0808EC00BD53A0FB80B880B6EB
:0108F40022E1
:0C096900758920758DFD759850D28E2286
:0B0975008F0D850D993099FDC299226D
:100934008B088A09890AAB08AA09A90A1208F5FFD3
:1009440060141208F5FF1209757401250AF50AE40A
:070954003509F50980E022DE
:10080C0002088CE493A3F8E493A34003F68001F26E
:10081C0008DFF48029E493A3F85407240CC8C333ED
:10082C00C4540F4420C8834004F456800146F6DFBC
:10083C00E4800B0102040810204080900986E47EBD
:10084C00019360BCA3FF543F30E509541FFEE493B1
:10085C00A360010ECF54C025E060A840B8E493A378
:10086C00FAE493A3F8E493A3C8C582C8CAC583CAA3
:10087C00F0A3C8C582C8CAC583CADFE9DEE780BE5B
:01098900006D
:1008F500BB010689828A83E0225002E722BBFE0201
:09090500E32289828A83E4932233
:10090E00D083D082F8E4937012740193700DA3A378
:10091E0093F8740193F5828883E47374029368608C
:06092E00EFA3A3A380DF8C
:00000001FF
