:030000000208A053
:0C08A000787FE4F6D8FD75810F02082770
:0D08930056696E697400476F6C69797300D7
:100827001208757F801208AC7BFF7A08799312084B
:10083700007FC01208AC7BFF7A0879991208008004
:02084700E222AB
:100862008E0B8F0CE50C150CAE0B7002150BFF4EA8
:0308720070F222FF
:0E08850053B07F7FE87E0312086243B08022EA
:0608C4008F0D850DA0223E
:0C08AC008F0E1208C453B0DF1208852222
:0C08B8008F0F1208C443B02012088522E4
:100875007F381208AC7F0E1208AC7F061208AC2236
:100800008B088A09890AAB08AA09A90A120849FFB4
:100810006014120849FF1208B87401250AF50AE4A9
:070820003509F50980E02213
:10084900BB010689828A83E0225002E722BBFE02AD
:09085900E32289828A83E49322E0
:00000001FF
