:03000000020800F3
:0C080000787FE4F6D8FD758109020847F6
:10088C001208BA1208A4E50964A0450870F5F50829
:08089C00F5096390FF80EC22D6
:0408C6000208000024
:0C08BA00758901758CA5758AFED28C2210
:1008A400308D12C28D758CA5758AFE0509E5097017
:0608B40002050880EB22A2
:10080C0002088CE493A3F8E493A34003F68001F26E
:10081C0008DFF48029E493A3F85407240CC8C333ED
:10082C00C4540F4420C8834004F456800146F6DFBC
:10083C00E4800B01020408102040809008C6E47E7E
:10084C00019360BCA3FF543F30E509541FFEE493B1
:10085C00A360010ECF54C025E060A840B8E493A378
:10086C00FAE493A3F8E493A3C8C582C8CAC583CAA3
:10087C00F0A3C8C582C8CAC583CADFE9DEE780BE5B
:0108CA00002D
:00000001FF
