:03000000020A9958
:0C0A9900787FE4F6D8FD75811602080095
:10080000E4F508F509F50AF50BF50CF50DF50EF50F
:100810000FF510F511F512F51353B0FE120A7C7F97
:1008200001120AB0209031E50F450E702B7F887EB3
:1008300013120AA5209029750E00750F01E50945D0
:1008400008700B120947750800750901801212091A
:100850006BE4F508F5098008309005E4F50EF50F16
:10086000209131E5114510702B7F887E13120AA567
:10087000209129751000751101E50B450A700B12C6
:10088000098F750A00750B0180121209B3E4F50A8D
:10089000F50B8008309105E4F510F511209236E54E
:1008A00013451270307F887E13120AA5309203021E
:1008B0000824751200751301E50D450C700C120922
:1008C000D7750C00750D010208241209FBE4F50C24
:1008D000F50D020824209203020824E4F512F51312
:0308E000020824E7
:0B0AA500EF1FAC0670011E4C70F62223
:0E0A8B0053B07F7FE87E03120AA543B080229D
:030AC2008FA022E0
:090AB000120AC253B0DF020A8BE6
:090AB900120AC243B020020A8BAC
:0F0A7C007F38120AB07F0E120AB07F06020AB04E
:100A1F008B148A158916AB14AA15A916120A63FF2F
:100A2F006010120AB974012516F516E43515F5157F
:030A3F0080E4222E
:1008E3007580017F507EC3120AA57580027F507EFA
:1008F300C3120AA57580047F507EC3120AA57580B2
:10090300087F507EC3120AA5E4F5807F507EC302A0
:020913000AA533
:100915007580087F507EC3120AA57580047F507EBE
:10092500C3120AA57580027F507EC3120AA5758081
:10093500017F507EC3120AA5E4F5807F507EC30275
:020945000AA501
:100A4200444F4F52004F50454E00434C4F534500C8
:100A520046414E004F4E004F4646004C49474854CF
:010A62000093
:100947007F01120AB01208E37F80120AB07BFF7A98
:100957000A7942120A1F7FC0120AB07BFF7A0A790E
:0409670047020A1F1A
:10096B007F01120AB01209157F80120AB07BFF7A41
:10097B000A7942120A1F7FC0120AB07BFF7A0A79EA
:04098B004C020A1FF1
:10098F007F01120AB01208E37F80120AB07BFF7A50
:10099F000A7952120A1F7FC0120AB07BFF7A0A79B6
:0409AF0056020A1FC3
:1009B3007F01120AB01209157F80120AB07BFF7AF9
:1009C3000A7952120A1F7FC0120AB07BFF7A0A7992
:0409D30059020A1F9C
:1009D7007F01120AB043B0017F80120AB07BFF7A11
:1009E7000A795D120A1F7FC0120AB07BFF7A0A7963
:0409F70056020A1F7B
:1009FB007F01120AB053B0FE7F80120AB07BFF7AE0
:100A0B000A795D120A1F7FC0120AB07BFF7A0A793E
:040A1B0059020A1F53
:100A6300BB010689828A83E0225002E722BBFE0291
:090A7300E32289828A83E49322C4
:00000001FF
