:03000000020800F3
:0C080000787FE4F6D8FD75810D020847F2
:0E095A0056696E6974206B756D6172203A00EB
:03097F00010B0069
:10088C001209687BFF7A09795A12092353A0FE5387
:10089C00A0FD53A0FB12094A8F0BE50B60F7120861
:1008AC00FD08CD4208D74608C34C08D26208DC6666
:1008BC0008C86C000008A143A00180D953A0FE8099
:1008CC00D443A00280CF53A0FD80CA43A00480C5AE
:0808DC0053A0FB80C080BE2286
:0C096800758920758DFD759850D28E2287
:0B0974008F0C850C993099FDC2992270
:100923008B088A09890AAB08AA09A90A1208E4FFF5
:1009330060141208E4FF1209747401250AF50AE42D
:070943003509F50980E022EF
:0F094A00750D0030980785990DC29880F6AF0D96
:01095900227B
:10080C0002088CE493A3F8E493A34003F68001F26E
:10081C0008DFF48029E493A3F85407240CC8C333ED
:10082C00C4540F4420C8834004F456800146F6DFBC
:10083C00E4800B010204081020408090097FE47EC4
:10084C00019360BCA3FF543F30E509541FFEE493B1
:10085C00A360010ECF54C025E060A840B8E493A378
:10086C00FAE493A3F8E493A3C8C582C8CAC583CAA3
:10087C00F0A3C8C582C8CAC583CADFE9DEE780BE5B
:010982000074
:1008E400BB010689828A83E0225002E722BBFE0212
:0908F400E32289828A83E4932245
:1008FD00D083D082F8E4937012740193700DA3A38A
:10090D0093F8740193F5828883E47374029368609D
:06091D00EFA3A3A380DF9D
:00000001FF
